:020000040800F2
:10000000B807002089010008FB1B0008E31900085D
:10001000F91B0008FD040008ED21000800000000A5
:10002000000000000000000000000000B11E0008F9
:100030002D05000800000000FD1B00087D1F0008C2
:10004000A3010008A3010008A3010008A301000800
:10005000A3010008A3010008A3010008A3010008F0
:10006000A3010008A3010008A3010008A3010008E0
:10007000A3010008A3010008A3010008A3010008D0
:10008000A3010008A3010008A3010008A3010008C0
:10009000E1210008A3010008A3010008A301000852
:1000A000A3010008A3010008A3010008A3010008A0
:1000B000A3010008E11F0008A3010008A301000834
:1000C000A3010008A3010008A3010008A301000880
:1000D000A3010008A3010008A3010008A301000870
:1000E000A3010008A3010008A301000800F002F822
:1000F00000F03AF80AA090E8000C82448344AAF188
:100100000107DA4501D100F02FF8AFF2090EBAE885
:100110000F0013F0010F18BFFB1A43F0010318473B
:10012000842A0000A42A0000103A24BF78C878C1AD
:10013000FAD8520724BF30C830C144BF04680C60ED
:10014000704700000023002400250026103A28BF35
:1001500078C1FBD8520728BF30C148BF0B60704739
:100160001FB51FBD10B510BD00F0CFF81146FFF749
:10017000F7FF02F04DF800F0EDF803B4FFF7F2FFDF
:1001800003BC00F0F5F80000094880470948004723
:10019000FEE7FEE7FEE7FEE7FEE7FEE7FEE7FEE737
:1001A000FEE7FEE704480549054A064B7047000094
:1001B000DF1F0008ED000008B8010020B80700208C
:1001C000B8030020B803002053EA020C00F0698055
:1001D0002DE9F04B4FF00006002B1FBFB3FA83F55B
:1001E00003FA05F424FA05F65E4012BF1643B2FA8C
:1001F00082F502FA05F4C5F120051EBF22FA05FCBE
:1002000044EA0C04203556EA044C4FEA144418BF63
:10021000641C4FF000084FF00009904271EB030C92
:1002200039D3002919BFB1FA81F701FA07F6B0FAFC
:1002300080F700FA07F6C7F120071EBF20FA07FC77
:1002400046EA0C062037B6FBF4FCA7EB0507103F87
:1002500007F01F0BCBF120060CFA0BFB2CFA06F66D
:1002600044BFB3460026202FA4BF5E464FF0000BCC
:100270005BEA060C08BF4FF0010B19EB0B09ABFB57
:10028000027C48EB0608C01B06FB02CC0BFB03CC30
:1002900071EB0C01C1E70B46024641464846BDE8FA
:1002A000F08B13B54FF000004FF00001AFF300806A
:1002B000BDE81C4070474FF0000200B5134694465D
:1002C0009646203922BFA0E80C50A0E80C50B1F1AE
:1002D0002001BFF4F7AF090728BFA0E80C5048BFC2
:1002E0000CC05DF804EB890028BF40F8042B08BF60
:1002F000704748BF20F8022B11F0804F18BF00F85C
:10030000012B7047704770477047754600F02CF816
:10031000AE4605006946534620F00700854618B0F2
:1003200020B5FFF73FFFBDE820404FF000064FF03B
:1003300000074FF000084FF0000B21F00701AC461A
:10034000ACE8C009ACE8C009ACE8C009ACE8C00939
:100350008D46704710B50446AFF300802046BDE8D7
:100360001040FFF70ABF0000004870475801002006
:1003700001491820ABBEFEE72600020070470000CE
:1003800070B590B04BA10446D1E90001CDE90E0152
:100390004AA002AB0068009049A04FF47A7607C8E3
:1003A00083E8070049A105AB07C983E807004AA114
:1003B00008AB07C983E807004AA20BAB07CA83E86A
:1003C00007000A21B4FBF1F001FB104030308DF83A
:1003D0000700B4FBF1F0B0FBF1F201FB1202B0FB3D
:1003E000F1F030328DF80620B0FBF1F201FB120281
:1003F000B0FBF1F030328DF80520B0FBF1F201FBDB
:10040000120030308DF80400334607220EA9384818
:1004100001F08EFA3346012201A9354801F088FA2D
:1004200001AD334601223248691C01F081FA33469E
:100430000122A91C2E4801F07BFA33460122E91C57
:100440002B4801F075FA642303226946284801F01D
:100450006FFA642C33464FF008021FD805A92448D0
:1004600001F066FA642303226946214801F060FA2C
:1004700020490020334608801F49012008220870C7
:100480000BA91B4801F054FA64230322694618485B
:1004900001F04EFA3346092208A900E002A91448E7
:1004A00001F046FA642303226946114801F040FA3C
:1004B00010B070BD78302E76616C3D00FFFFFF00FC
:1004C0007669732070322C3000000000766973204A
:1004D00070322C310000000070352E7069633D369B
:1004E000000000007669732070352C310000000098
:1004F000600000204E0000204C000020FEE70000BD
:1005000008480122002102620161C0E90612C160AF
:10051000816001604160416141620146024800F032
:1005200019B8000030010020A4000020704790F8A6
:100530002020012A07D0022A05D0416A41F48021F7
:10054000416201207047006842690A43426100200D
:100550007047000010B590F820300268012B07D0DA
:10056000022B05D0416A41F480214162012010BD77
:10057000D2F8000240F00100C2F80002087D00F04D
:100580001F0301209840D2F81C328343C2F81C326A
:10059000CB69B3B9D2F80C328343C2F80C328C89E0
:1005A0004B6864F31F434C6902EBC404C4F8403247
:1005B0000C890B6864F31F434C6902EBC404C4F854
:1005C0004432CB69012B16D1D2F80C320343C2F866
:1005D0000C320C884B6864F31F434C6902EBC40473
:1005E000C4F840320C89CB6864F31F434C6902EBBA
:1005F000C404C4F844328B69002BD2F804320FD003
:1006000053EA0003C2F804320B69002BD2F814320B
:1006100008D00343C2F81432096A012904D008E063
:100620008343EFE78343F5E7D2F81C120143C2F896
:100630001C12D2F8000220F00100C2F800020020D3
:1006400010BD704730B590F82040012C05D0022C29
:1006500003D0416A41F480215DE00468002955D04F
:100660002469A40754D04FF4D874056804EB01142E
:100670002D5915F00405956005682D594ED0ED08EB
:10068000556005682C5904F00204D4604FF4DA7404
:10069000056804EB01142D5905F00F051561056877
:1006A0002D59C5F30725956105682C59240C546113
:1006B0004FF4DC72046802EB0112A4581C70046849
:1006C000A458240A5C700468A458240C9C70046824
:1006D000A258120EDA704FF4DE72046802EB0112B7
:1006E000A4581C710468A458240A5C710468A458B6
:1006F000240C9C710468A258120EDA71006881B152
:10070000016941F020010161002030BDE468A8E7E3
:10071000416A41F400114162012030BD6D0D156048
:10072000AFE7C16841F02001C160EDE72DE9F05F5E
:100730000546006800244669D0F804908768D0F820
:100740000CB0D0F810A0D0F81880F10748D0F90705
:1007500014D001218160B80703D5284600F085FA3E
:100760000CE0780702D54FF4006407E0380702D5A3
:100770004FF4805402E0284600F076FAF80516D5CA
:1007800029684FF480708860B80503D5284600F0CA
:100790006EFA0CE0780502D544F4005407E0380501
:1007A00002D544F4804402E0284600F05FFAF803E2
:1007B00016D529684FF480308860B80303D52846E1
:1007C00000F057FA0CE0780302D544F4004407E047
:1007D000380302D544F4803402E0284600F048FA99
:1007E000300707D55FEACB6004D52968102044F4B0
:1007F0000074C86070074FF0080707D55FEA0B70F8
:1008000004D52868C760284600F05AF9B00706D515
:100810002868C068800702D0284600F053F97006A7
:1008200007D55FEACA6004D52968102044F48064C3
:100830000861B00607D55FEA0A7004D52868076129
:10084000284600F0E1F9F00606D52868006980071F
:1008500002D0284600F0D9F9B00308D55FEAC96094
:1008600005D5296810204860284600F0CFF9F0032C
:1008700007D55FEA097004D528684760284600F06C
:10088000F9F9300446D55FEA497040D5F00504D542
:100890005FEAC87001D044F00104B00504D55FEAF6
:1008A000887001D544F00204700504D55FEA4870F1
:1008B00001D544F00404300529D518F0700F26D076
:1008C00008F07000402815D006DC102809D0202838
:1008D0000AD0302816D10AE050280ED0602811D155
:1008E0000EE044F008040DE044F010040AE044F087
:1008F000200407E044F0400404E044F0800401E0F8
:1009000044F480742868816921F07001816129684C
:1009100004204860002C05D0686A2043686228469D
:10092000FFF78FFEBDE8F09F70B5040003D094F888
:10093000200010B104E0012070BD204600F082F8D4
:100940002068016841F00101016000F08BFA054662
:10095000052604E000F086FA401B0A2811D820681A
:100960004068C007F6D02068016821F002010160EC
:1009700000F078FA05460BE000F074FA401B0A28F4
:1009800006D9606A40F40030606284F82060D2E7E3
:10099000206840688007EFD4207E01282068016825
:1009A0003DD021F080010160607E0128206801684F
:1009B00038D021F040010160A07E01282068016844
:1009C00033D021F020010160E07E01282068016819
:1009D0002ED041F010010160207F012820680168BD
:1009E00029D021F008010160607F0128206801689A
:1009F00024D021F004010160D4E902010843D4E9C4
:100A00000412114308436168491E08432168C86104
:100A100000206062012084F82000002070BD41F0B9
:100A20008001C0E741F04001C5E741F02001CAE77D
:100A300021F01001CFE741F00801D4E741F00401B3
:100A4000D9E7000010B586B0002100910191029114
:100A500003910068174988422AD11748C16941F0BB
:100A60000071C161C16901F000710491816941F0B7
:100A7000040181618069114C00F0040004904FF47E
:100A8000006000906946204600F0F6F8A01400903F
:100A900002200190032003906946204600F0ECF804
:100AA00000221146142000F049FA142000F038FA10
:100AB00006B010BD00640040001002400008014074
:100AC000704700002DE9F04188B06B46404A002194
:100AD000FFF7B8FD3E480168502947D00168512909
:100AE00041D0016852293ED0016853295CD0016889
:100AF000542938D00168552935D00168702960D053
:100B000002680024334D0126334F4FF47A71712A65
:100B10005CD00068722826D130A30DF108080DCBF7
:100B200088E80D0030A30DF1140C0DCB8CE80D00FE
:100B300088460B46082205A92E4800F0F9FE6423DA
:100B400003222D492B4800F0F3FE4346092202A957
:100B5000284800F0EDFE642303222749254800F0D1
:100B6000E7FE2C803E7008B0BDE8F0819DF80010D3
:100B700061F307009DF8011061F30F2080B240BAC5
:100B8000C11701F03DF89DF80200FFF7F9FB9DF851
:100B9000050060F307049DF8060060F30F24A0B27F
:100BA00040BA01F03DFFDEE79DF8031061F3070056
:100BB0009DF8041061F30F2080B240BA01F0D6FE18
:100BC000D1E79DF8000001F075F9CCE70BA3A4E78D
:100BD000140100204E0000204C00002070352E70C3
:100BE00069633D32330000007669732070352C3123
:100BF00000000000600000201C00002070352E70F6
:100C000069633D3234000000704770477047000050
:100C100070B5044690F82000012804D0606A40F4C2
:100C20000020606218E0022084F82000206801683B
:100C300021F00101016000F015F905460EE000BF4A
:100C400000F010F9401B0A2808D9606A40F400300F
:100C50006062052084F82000012070BD2068406893
:100C6000C007EDD1606270BD704770477047704734
:100C700070477047704700002DE9F84FDFF8B891D2
:100C8000002409F1040A0AF1040B23460F270BF193
:100C9000040EC9E00125A5402A40AA427DD1674E35
:100CA000D1F804C0ACEB0608B44532D014DCBCF17A
:100CB000030F3AD009DCBCF1000F2AD0BCF1010FC0
:100CC0001CD0BCF1020F31D11DE0BCF1110F17D0C7
:100CD000BCF1120F2AD119E0B8F5881F19D006DC33
:100CE000B8F5803F15D0B8F5801F1FD111E0B8F5D9
:100CF000001F0ED0B8F5041F18D10AE0CB6815E02C
:100D0000CB681B1D12E0CB6808330FE0CB680C33B7
:100D10000CE08B682BB1012B4FF0080303D0456129
:100D200004E0042302E0056100E00023FF2A01D86B
:100D3000064601E000F104064FEA840501D9A5F159
:100D40002005D6F8008007FA05FC28EA0C0803FA0B
:100D500005F548EA0508C6F800804D68ED0062D543
:100D6000374DAE6946F00106AE61AD6924F0030669
:100D700005F001050095334D06EB050CDCF8085035
:100D8000A607360F07FA06F825EA0805DFF8B88047
:100D9000404503D14FF0000817E044E0DFF8AC8095
:100DA000404502D14FF001080FE0DFF8A480404534
:100DB00002D14FF0020808E0DFF89880404502D1E8
:100DC0004FF0030801E04FF0040808FA06F848EA7B
:100DD0000508CCF808804D68D9F80060ED034D4651
:100DE00001D5164300E096432E604D68DAF80060A6
:100DF000AD03554601D5164300E096432E604D687D
:100E0000DBF80060ED025D4601D5164300E0964335
:100E10002E604D68DEF80060AD02754601D51643C0
:100E200000E096432E60641C0D682A46E5407FF47E
:100E300031AFBDE8F88F0000000401400000111040
:100E4000001002400000014000080140000C014079
:100E500000100140001401408068084000D00120CB
:100E60007047000001488068704700005000002073
:100E70000248816802781144816070475000002068
:100E8000074810B5016841F010010160032000F02F
:100E900075F80F2000F006F800F024F8002010BDCF
:100EA0000020024070B50D4D04464FF47A71287849
:100EB000B1FBF0F00A490968B1FBF0F000F0ECFA80
:100EC00048B9102C07D200222146501E00F036F8F7
:100ED00000206C6070BD012070BD0000500000203B
:100EE0005C0000200C4808B5816941F00101816176
:100EF000816901F001010091C16941F08051C16136
:100F0000C06900F0805000900448416821F0E06121
:100F100041F00071416008BD001002400000014036
:100F2000002809DB00F01F020121914040098000E8
:100F300000F1E020C0F8001170470000F0B40E4B43
:100F40001B680C46C3F30223C3F10705042D00D927
:100F50000425191D072901D2002300E0DB1E01260C
:100F600006FA05F1491E214099409E40761E164022
:100F70003143F0BC01F03BB90CED00E0064900F054
:100F8000070208684FF6FF03184040EA0220034AB0
:100F900010430860704700000CED00E00000FA0507
:100FA0002DE9F0470F46050061D0434E306800F050
:100FB0000700B84209D2306820F00700384330609B
:100FC000306800F00700B84251D128683B4C8107D7
:100FD00012D5400703D5606840F4E060606028786F
:100FE000000703D5606840F4605060606068A968DD
:100FF00020F0F000084360602878C00728D06868B7
:10100000012810D02168022810D0890700292EDA83
:10101000616821F0030101436160FFF723FF80460F
:1010200041F288390DE021688903EFE78901EDE796
:10103000FFF718FFA0EB0801494502D90320BDE8DE
:10104000F0876068696800F00C00B0EB810FEFD1A9
:10105000306800F00700B8420BD9306820F0070074
:1010600038433060306800F00700B84201D00120FA
:10107000E5E72878400705D56068E96820F4E06076
:10108000084360602878000706D56068296920F465
:10109000605040EAC100606000F038F86168084ABA
:1010A000C1F30311515CC840064908600648006856
:1010B000FFF7F8FE0020C2E70020024000100240C7
:1010C0008C2B00085C0000205400002004480549D7
:1010D00000684968044AC1F30221515CC840704766
:1010E0005C000020001002409C2B000804480549C9
:1010F00000684968044AC1F3C221515CC840704786
:101100005C000020001002409C2B000812A185B05A
:101110000FC98DE80F0014A0144A006804905168AC
:10112000134801F00C03042B10D0082B0ED1C1F38F
:101130008343C9031DF803000AD5516804AAC1F30B
:101140004041515C0A4A5043B0FBF1F005B0704792
:1011500008494843FAE700000203040506070809A6
:101160000A0B0C0D0E0F10100102000000100240BF
:1011700000127A0000093D002DE9F84F040070D0FC
:101180002078C04DC00749D06868C0F381000128AD
:1011900007D06868C0F38100022809D16868C003DD
:1011A00006D52868800339D560680028E7D035E087
:1011B0006068B0F5803F0BD010B1B0F5A02F11D012
:1011C000286820F480302860286820F4802002E01D
:1011D000286840F480302860606890B1FFF742FED4
:1011E00006460AE0286840F480202860F0E700BF47
:1011F000FFF738FE801B642873D828688003F7D572
:101200000CE0FFF72FFE064605E000BFFFF72AFEC1
:10121000801B6428F0D828688003F7D420789A4E81
:1012200080074FF001094FF0000839D5686810F0C9
:101230000C0F07D06868C0F38100022809D16868E4
:10124000C00306D42868800714D52069012808D176
:1012500010E02069B0B1C6F80090FFF703FE074622
:1012600005E00AE1FFF7FEFDC01B0228C4D828688C
:101270008007F7D52868616920F0F80040EAC100CE
:1012800028600DE0C6F80080FFF7ECFD074604E09B
:10129000FFF7E8FDC01B022823D828688007F7D491
:1012A000207800072CD57948A169D9B1C0F8009001
:1012B000FFF7D8FD074604E0FFF7D4FDC01B022866
:1012C0000FD8686A8007F7D571484FF4FA51006863
:1012D000B0FBF1F0009000BF0098411E0091FAD2DF
:1012E0000EE080E0C0F80080FFF7BCFD074604E098
:1012F000FFF7B8FDC01B022875D8686A8007F7D4CD
:101300002078400760D5E8690027C00008D4E86964
:1013100040F08050E861E869012700F080500090BB
:101320005C480168C90513D40168834641F48071A3
:101330000160FFF797FD824606E000BFFFF792FDD0
:10134000A0EB0A0064284ED8DBF80000C005F5D5F4
:10135000E06801280AD008B1052813D0286A20F0D7
:1013600001002862286A20F0040002E0286A40F0A8
:1013700001002862E06841F2883B98B1FFF772FDF6
:1013800082460BE0286A40F004002862EEE700BFC6
:10139000FFF768FDA0EB0A0159455AD8286A800773
:1013A000F6D50CE0FFF75EFD824605E0FFF75AFD3B
:1013B000A0EB0A0159454CD8286A8007F6D41FB122
:1013C000E86920F08050E861E06988B36968C1F39A
:1013D0008101022944D00228C6F8608004D0FFF7BA
:1013E00041FD044638E034E0FFF73CFD074604E0E9
:1013F000FFF738FDC01B02282BD828688001F7D4DE
:10140000206AB0F5803F05D16868A16820F40030FB
:1014100008436860D4E908010843696821F474113D
:1014200008436860C6F86090FFF71CFD044606E0BC
:1014300025E000BFFFF716FD001B022809D8286829
:101440008001F7D51BE000BFFFF70CFD001B022851
:1014500002D90320BDE8F88F28688001F4D40EE09B
:101460000128F7D06868226A00F48031914204D1E3
:10147000616A00F47010884201D00120EAE7002080
:10148000E8E70000001002400000424280044242AF
:101490005C0000200070004010B5401EB0F1807F5D
:1014A00001D3012010BD4FF0E02460610F216017CF
:1014B00000F09DFE0020A06107202061002010BDEB
:1014C0007047704770B590F83C20012A26D001245F
:1014D00080F83C40022280F83D2003685A689D68ED
:1014E00022F070060A6832435A600D4B02689A4235
:1014F00008D0B2F1804F05D00A4B9A4202D00A4B75
:101500009A4204D1496825F080031943916080F81C
:101510003D40002180F83C10084670BD022070BD9F
:10152000002C0140000400400008004010B50400F9
:1015300003D094F83D0010B107E0012010BD002059
:1015400084F83C00204600F01FF8022084F83D009B
:10155000211D206800F04AFD012084F8460084F82F
:101560003E0084F83F0084F8400084F8410084F88D
:10157000420084F8430084F8440084F8450084F86D
:101580003D00002010BD000008B500680B498842EE
:1015900012D10B48C16941F00201C161C06900224A
:1015A00000F00200009011461D20FFF7C7FCBDE8C7
:1015B00008401D20FFF7B4BC08BD00000004004037
:1015C0000010024070B5044690F83C00012817D086
:1015D000012584F83C50022084F83D002068826890
:1015E00022F0770222F47F4282600868502830D0CF
:1015F0000DDC20284DD005DC98B310283BD148E005
:10160000022070BD302844D0402834D139E0602811
:1016100028D0702806D0B0F5805F2CD0B0F5005FE0
:1016200029D10AE0CB68D1E90121206800F014FD3E
:101630002068816841F0770109E0CB68D1E9012198
:10164000206800F009FD2068816841F480418160D4
:1016500011E0CA684968206800F010FD5021206838
:1016600007E016E0CA684968206800F018FD6021AC
:10167000206800F0FBFC84F83D50002084F83C001A
:1016800070BDCA684968206800F0F8FC40212068F5
:10169000EFE7226801461046EBE7704770B5044655
:1016A000006801694FF00005C943890715D4C16876
:1016B000C943890711D4E91E016101202077206800
:1016C00080698007204602D0FFF7E7FF04E000F0C2
:1016D00098F8204600F096F8257720680169C943FC
:1016E000490717D4C168C943490713D46FF00401EF
:1016F0000161022020772068806910F4407F204635
:1017000002D0FFF7CAFF04E000F07BF8204600F0AB
:1017100079F8257720680169C943090716D4C1689B
:10172000C943090712D46FF0080101610420207732
:101730002068C0698007204602D0FFF7AEFF04E0B2
:1017400000F05FF8204600F05DF825772068016919
:10175000C943C90617D4C168C943C90613D46FF079
:1017600010010161082020772068C06910F4407FD3
:10177000204602D0FFF791FF04E000F042F8204637
:1017800000F040F8257720680169C943C90708D1EE
:10179000C168C943C90704D1891E0161204600F010
:1017A00033F820680169C943090609D4C168C943EF
:1017B000090605D46FF0800101612046FFF780FE25
:1017C00020680169C943490609D4C168C94349066B
:1017D00005D46FF040010161204600F03FF8206819
:1017E0000169C94389060BD4C168C943890607D476
:1017F0006FF0200101612046BDE87040FFF761BE37
:1018000070BD7047704700000F4910B5884219D16C
:1018100000F0E8F80D480078012801D100F07AFBCB
:1018200040210B48FFF718FB00280BD1094C20681A
:10183000032807D100F04CFD002020600648016815
:10184000491C016010BD0000CC0000204C000020AD
:10185000000801402800002034000020704770B5C7
:10186000040004D094F83D00002510B106E00120EA
:1018700070BD84F83C50204600F022F8242084F803
:101880003D002068C16821F40051C160204600F08D
:1018900019FC2068016921F49041016120684169C7
:1018A00021F02A0141612068C16841F40051C16002
:1018B0002564202084F83D0084F83E00002070BD9F
:1018C00030B585B00024009401940294039400681C
:1018D0001449884224D11448816941F480418161CE
:1018E000816901F480410491816941F004018161C1
:1018F00080690E4D00F0040004904FF400700090D9
:10190000022001900320039069462846FFF7B4F9AE
:101910002815CDE90004694628460294FFF7ACF982
:1019200005B030BD00380140001002400008014001
:101930002DE9F843044690F83D001F4616460D4633
:1019400020284CD1C5B1BEB194F83C00012846D046
:10195000012084F83C004FF00008C4F840802120AA
:1019600084F83D00FFF77EFAA6848146E684A068ED
:10197000B0F5805F03D004E00120BDE8F883206962
:1019800028B12E465FF0000584F83C800EE000266A
:10199000FAE78021204600F0F1FBA0B9AEB116F8BD
:1019A000010B21684860E08C401EE084E08C4B46CF
:1019B0004FF0000200970028EBD14FF04001204685
:1019C00000F0DCFB30B10320D7E735F8020BC0F3A1
:1019D0000800E6E7202084F83D000020CDE7022043
:1019E000CBE7FEE72DE9FC4155A14FF47A76D1E92A
:1019F0000001CDE90001544800228188491C8BB2C6
:101A000001468380C988B34206D38280491CC180C5
:101A1000816A491C816205E03C2903D3C2800189A7
:101A2000491C018182880A21B2FBF1F301FB1323D7
:101A3000454CB2FBF1F21F343033A370B2FBF1F32B
:101A400001FB1323B2FBF1F230336370B2FBF1F30D
:101A500001FB132230322270C288A4F11505B2FBBB
:101A6000F1F301FB1323B2FBF1F230336B70B2FBE5
:101A7000F1F301FB132230322A700089AF1CB0FB56
:101A8000F1F201FB1202B0FBF1F030327A70B0FBE0
:101A9000F1F201FB120030303870334608226946FB
:101AA0002A48FFF745FF33460122A91C2748FFF7C4
:101AB0003FFF33460122791C2448FFF739FF3346A4
:101AC0000122A4F11E012148FFF732FF3346012213
:101AD00029461E48FFF72CFF33460122691C1B488C
:101AE000FFF726FF33460122A4F11D011748FFF737
:101AF0001FFF3346012221461448FFF719FF3346E2
:101B00000122611C1148FFF713FF33460122A11C7B
:101B10000E48FFF70DFF334601220B490B48FFF734
:101B200007FF64230322E11E0848FFF701FF642337
:101B30000322E11E0548FFF7FBFEBDE8FC81000023
:101B400074392E7478743D2200000020600000205B
:101B50000E4810B50C4901600421416000214FF48A
:101B600060228160C0E903124FF480124261017665
:101B700041768176C17601774177FEF7D5FE002860
:101B800001D072B6FEE710BD00640040A400002042
:101B900010B586B000241748009401940294039471
:101BA000049413490594016041F61F41C0E90114F2
:101BB0000921C0E903148461FFF7B8FC08B172B6CB
:101BC000FEE74FF48050009069460A48FFF7FAFCA0
:101BD00008B172B6FEE7049404A906480594FFF71D
:101BE00071FC002801D072B6FEE706B010BD0000FF
:101BF00000040040CC000020FEE7FEE77047000034
:101C0000F0B50D469FA18DB00446D1E90001CDE9A4
:101C100002019EA19622D1E90001CDE905019DA115
:101C20000023D1E90001CDE907019CA02946006805
:101C300009909BA000680A909AA000680B9020462B
:101C4000FEF7C2FA0646204629460A220023FEF77E
:101C5000BBFA30328DF807204FF00A024FF0000334
:101C6000FEF7B2FA30328DF806204FF00A024FF03C
:101C70000003FEF7A9FA30328DF805204FF00A0272
:101C80004FF00003FEF7A0FA30328DF804204FF039
:101C90000A024FF00003FEF797FA30328DF8032066
:101CA0004FF00A024FF00003FEF78EFA30328DF843
:101CB00002204FF00A024FF00003FEF785FA30329F
:101CC0008DF801204FF00A024FF00003FEF77CFA76
:101CD000302010188DF800004FF0000330464FF010
:101CE0000A021946FEF770FA30328DF813204FF0D1
:101CF0000A024FF00003FEF767FA30328DF8122027
:101D00004FF00A024FF00003FEF75EFA30328DF812
:101D100011204FF00A024FF00003FEF755FA302071
:101D200010188DF810004FF47A773B464FF00702F9
:101D300007A95D48FFF7FCFD3B46012269465A486A
:101D4000FFF7F6FD6E463B4601225748711CFFF730
:101D5000EFFD3B460122B11C5348FFF7E9FD3B462E
:101D60000122F11C5048FFF7E3FD3B460122311DE3
:101D70004D48FFF7DDFD3B460122711D4A48FFF744
:101D8000D7FD3B460122B11D4748FFF7D1FD3B4639
:101D90000122F11D4448FFF7CBFD64230322434990
:101DA0004148FFF7C5FD3B46072205A93E48FFF71E
:101DB000BFFD3B46012204A93B48FFF7B9FD04AE35
:101DC0003B4601223848711CFFF7B2FD3B46012219
:101DD000B11C3548FFF7ACFD3B460122F11C3248EF
:101DE000FFF7A6FD6423032230492F48FFF7A0FD2B
:101DF00041F27070201A75F1000010D23B460822A3
:101E000002A92948FFF794FD3B46012209A926486B
:101E1000FFF78EFD3B4601220DF1250127E016D389
:101E200042F21070201A75F1000010D23B460822D1
:101E300002A91D48FFF77CFD3B4601220BA91A4869
:101E4000FFF776FD3B4601220DF12D010FE03B46E9
:101E5000082202A91448FFF76BFD3B4601220AA99C
:101E60001148FFF765FD3B4601220DF129010E489F
:101E7000FFF75EFD642303220C490B48FFF758FD72
:101E80000DB0F0BD6A332E707069633D6A332E76F3
:101E9000616C3D006E332E76616C3D003134000084
:101EA0003135000031360000600000202C00002099
:101EB0007047000000B50FA187B00EC98DE80E0075
:101EC0000FA10DF10C0C0EC98CE80E004FF47A73C3
:101ED00001284FF009020BD003A90C48FFF728FD99
:101EE000642303220A490948FFF722FD07B000BD19
:101EF0006946F2E770342E7069633D3230000000AD
:101F000070342E7069633D323100000060000020A3
:101F10001C0000200549012008704888B0F57A7F30
:101F200001D300F005B8401C488070474C000020E9
:101F30001FB50CA00CA20068039007CA8DE807002B
:101F40004FF47A73082269460A48FFF7F1FC6423CC
:101F5000032203A90748FFF7EBFC0749002008709C
:101F60001FBD0000FFFFFF007669732070352C3025
:101F700000000000600000204C000020FEF778BF49
:101F800030B58FB028216846FEF795F914210AA8CC
:101F9000FEF791F901210804CDE900100024029414
:101FA00002250491CDE907504FF4E01009906846EE
:101FB000FFF7E2F808B172B6FEE70F20CDE90A0597
:101FC0004FF48060CDE90C4002210AA80E94FEF780
:101FD000E7FF002801D072B6FEE70FB030BD7047B2
:101FE0000148FFF75BBB0000CC000020F0B50268A1
:101FF000164B174C174D4FF08047984205D0B8420A
:1020000003D0A04201D0A84203D122F070064A6852
:102010003243984205D0B84203D0A04201D0A84232
:1020200003D122F44074CA6822434C6922F0800232
:10203000224302608A68C2620A688262984201D1C1
:102040000969016301214161F0BD0000002C0140DC
:10205000000400400008004010B5846842EA0322F2
:1020600024F47F440A432243826010BD826822F038
:1020700070020A4342F007018160704710B5036A9D
:10208000046A24F001040462846924F0F00444EA40
:10209000021423F00A020A438461026210BD10B5E3
:1020A000036A23F0100303628369046A23F4704314
:1020B00043EA023224F0A00343EA01118261016283
:1020C00010BD000070B5044600680169E26821F4A3
:1020D0004051114301612169A068084361690843C7
:1020E0002168CA6841F20C639A430243CA602068BF
:1020F0004169A26921F44071114341611E49206880
:10210000884202D1FEF7F2FF01E0FEF7DFFF00EBAD
:10211000C00101EB0012606864218000B2FBF0F3A3
:10212000B3FBF1F36FF018067343B2FBF0F5B2FBAB
:10213000F0F605EB8305322303EB0515B5FBF1F54E
:10214000B6FBF1F605F0F00505EB0615B2FBF0F66F
:10215000B2FBF0F0B0FBF1F06FF01802504306EB69
:10216000800003EB0010B0FBF1F0216800F00F00DD
:102170002844886070BD0000003801402DE9F0411E
:10218000984617460E460446069D1DE0681C1BD067
:102190002DB1FEF767FEA0EB0800A84214D9206815
:1021A000C16821F4D071C1602068416921F001014A
:1021B0004161202084F83D0084F83E00002084F82E
:1021C0003C000320BDE8F0812068006836EA00008A
:1021D00004D00020B842D9D00020F3E70120F9E76D
:1021E0000148FEF7A3BA0000A4000020FEE709079B
:1021F000090E002804DB00F1E02080F8001470478D
:1022000000F00F0000F1E02080F8141D704700007E
:1022100086B0FEF735FEFFF7B3FE00242748019491
:102220000394816941F020018161816901F02001FD
:102230000491816941F0040181618069694600F07F
:1022400004000490C0200090012002901C48FEF77A
:1022500013FDFFF79DFC1C481A4901604FF46121F2
:10226000C0E901140C21C460C0E904418461C46167
:10227000FFF7F5FA08B172B6FEE7FFF769FC1248FE
:10228000FFF7EDFA00F0C0F9FEF73AF902210F4826
:10229000FEF74DF90D48FEF7BBFC41F270740020CB
:1022A000FFF708FE20460021FFF7AAFC642000F09B
:1022B000B7FB6420FEF764F8F1E70000001002406D
:1022C000000801400038014060000020A400002008
:1022D000F0B595B0BAA10CABD1E90001CDE912017E
:1022E000B9A14FF47A7707C983E80700B9A20FAB09
:1022F00007CA83E80700BA4900200122C880088184
:10230000888008824882C881CA7048620A21B0FB6E
:10231000F1F201FB120230328DF80220B0FBF1F233
:10232000B2FBF1F301FB1323B2FBF1F230338DF872
:102330000130B2FBF1F301FB132230328DF80020A3
:10234000B0FBF1F201FB120230328DF80520B0FB38
:10235000F1F2B2FBF1F301FB132230328DF80420CD
:10236000B0FBF1F201FB1202B0FBF1F030328DF85C
:102370000920B0FBF1F201FB120030308DF80800AB
:102380003B46082212A99748FFF7D2FA3B460122A2
:1023900002A99448FFF7CCFA02AD3B4601229148CE
:1023A000691CFFF7C5FA8E493B460122491C8D483E
:1023B000FFF7BEFA3B46012201A98A48FFF7B8FAA7
:1023C0003B46012201AE8748E91EFFF7B1FA844976
:1023D0003B460122891C8348FFF7AAFA3B460122AB
:1023E00069468048FFF7A4FA6C463B4601227D48C7
:1023F000611CFFF79DFA3B460122A11C7948FFF7BB
:1024000097FA3B46012276497648FFF791FA7449DC
:10241000642303221C317348FFF78AFA704964234E
:1024200003221C316F48FFF783FA3B4609220CA9AF
:102430006C48FFF77DFA3B46012202A96948FFF785
:1024400077FA3B460122691C6648FFF771FA644936
:102450003B460122491C6348FFF76AFA3B460122CA
:1024600001A96048FFF764FA3B460122711C5D48F0
:10247000FFF75EFA5A493B460122891C5948FFF78B
:1024800057FA3B46012269465648FFF751FA3B4648
:102490000122611C5348FFF74BFA3B460122A11C65
:1024A0005048FFF745FA3B4601224D494D48FFF79A
:1024B0003FFA4B49642303221C314A48FFF738FA9C
:1024C0004749642303221C314648FFF731FA3B4653
:1024D00009220FA94348FFF72BFA3B46012202A924
:1024E0004048FFF725FA3B460122691C3D48FFF7AB
:1024F0001FFA3B493B460122491C3A48FFF718FAAC
:102500003B46012201A93748FFF712FA3B46012258
:10251000711C3448FFF70CFA31493B460122891CF3
:102520003048FFF705FA3B46012269462D48FFF780
:10253000FFF93B460122611C2A48FFF7F9F93B46A7
:102540000122A11C2748FFF7F3F93B460122244949
:102550002448FFF7EDF92249642303221C31214866
:10256000FFF7E6F91E49642303221C311D48FFF7DB
:10257000DFF91DA004AC0FC884E80F003B460E2213
:1025800004A91848FFF7D4F91549642303221C3124
:102590001448FFF7CDF918A208AC0FCA84E80F0061
:1025A0003B460E2208A90F48FFF7C2F90C496423E5
:1025B00003221C310B48FFF7BBF915B0F0BD00003A
:1025C00074392E7478743D227431302E7478743DD1
:1025D000220000007431312E7478743D2200000016
:1025E000000000206000002074362E7478743D22B4
:1025F0002B302E303022000074352E7478743D223A
:102600002B302E3030220000F0B597B0C3A10CABB8
:10261000D1E90001CDE91201C2A14FF47A7707C9CF
:1026200083E80700C2A20FAB07CA83E80700C349CB
:1026300000200122C8800881888008824882C881E1
:10264000CA7048620A21B0FBF1F201FB120230327B
:102650008DF80220B0FBF1F2B2FBF1F301FB132382
:10266000B2FBF1F230338DF80130B2FBF1F301FB34
:10267000132230328DF80020B0FBF1F201FB120280
:1026800030328DF80520B0FBF1F2B2FBF1F301FB23
:10269000132230328DF80420B0FBF1F201FB12025C
:1026A000B0FBF1F030328DF80920B0FBF1F201FB04
:1026B000120030308DF808003B46082212A9A048CD
:1026C000FFF736F93B46012202A99D48FFF730F992
:1026D00002AD3B4601229A48691CFFF729F9974948
:1026E0003B460122491C9648FFF722F93B4601224E
:1026F00001A99348FFF71CF93B46012201AE90481F
:10270000E91EFFF715F98D493B460122891C8C48CB
:10271000FFF70EF93B46012269468948FFF708F9A1
:102720006C463B4601228648611CFFF701F93B4697
:102730000122A11C8248FFF7FBF83B4601227F499A
:102740007F48FFF7F5F87D49642303221C317C485C
:10275000FFF7EEF87949642303221C317848FFF72C
:10276000E7F83B4609220CA97548FFF7E1F83B461C
:10277000012202A97248FFF7DBF83B460122691CDF
:102780006F48FFF7D5F86D493B460122491C6C485C
:10279000FFF7CEF83B46012201A96948FFF7C8F8C8
:1027A0003B460122711C6648FFF7C2F863493B466D
:1027B0000122891C6248FFF7BBF83B4601226946AB
:1027C0005F48FFF7B5F83B460122611C5C48FFF704
:1027D000AFF83B460122A11C5948FFF7A9F83B4638
:1027E000012256495648FFF7A3F8544964230322AF
:1027F0001C315348FFF79CF85049642303221C31D5
:102800004F48FFF795F83B4609220FA94C48FFF7C0
:102810008FF83B46012202A94948FFF789F83B4659
:102820000122691C4648FFF783F844493B460122D0
:10283000491C4348FFF77CF83B46012201A9404868
:10284000FFF776F83B460122711C3D48FFF770F810
:102850003A493B460122891C3948FFF769F83B4653
:10286000012269463648FFF763F83B460122611CA6
:102870003348FFF75DF83B460122A11C3048FFF7C3
:1028800057F83B4601222D492D48FFF751F82B49B7
:10289000642303221C312A48FFF74AF8274964239E
:1028A00003221C312648FFF743F826A004AC0FC8CA
:1028B00084E80F003B460E2204A92148FFF738F8B0
:1028C0001E49642303221C311D48FFF731F821A261
:1028D00008AC0FCA84E80F003B460E2208A918482E
:1028E000FFF726F81549642303221C311448FFF72B
:1028F0001FF81CA13B46D1E90001CDE914010822D3
:1029000014A90F48FFF714F80C49642303221C3163
:102910000B48FFF70DF817B0F0BD000074392E74A6
:1029200078743D227431302E7478743D220000009A
:102930007431312E7478743D2200000000000020B4
:102940006000002074362E7478743D222B302E30B7
:102950003022000074352E7478743D222B302E30D6
:10296000302200006E322E76616C3D303EB528A2DA
:102970004FF47A75D2E90012CDE901120A21B0FBB9
:10298000F1F201FB1202B0FBF1F030328DF80320BE
:10299000B0FBF1F201FB1202B0FBF1F030328DF826
:1029A0000220B0FBF1F201FB1202B0FBF1F0303279
:1029B0008DF80120B0FBF1F201FB120030308DF8F0
:1029C00000002B46072201A91348FEF7B1FF2B4652
:1029D000012269461048FEF7ABFF6C462B460122E8
:1029E0000D48611CFEF7A4FF2B460122A11C0A48DA
:1029F000FEF79EFF2B460122E11C0748FEF798FFD9
:102A00006423032205490448FEF792FF3EBD0000FF
:102A10006E302E76616C3D00600000202F0000209B
:102A200070B551A18CB0096850A20491D2E900128E
:102A3000CDE902124FA24FF47A75D2E90012CDE926
:102A400006124EA12B46096808914DA1096809910B
:102A50004CA109680A910A21B0FBF1F4B4FBF1F032
:102A600001FB104030308DF80700B4FBF1F0B0FBF3
:102A7000F1F201FB1202B0FBF1F030328DF80620CA
:102A8000B0FBF1F201FB1202B0FBF1F030328DF835
:102A90000520B0FBF1F201FB120030308DF804008C
:102AA000072206A93848FEF743FF2B46012201A959
:102AB0003548FEF73DFF01AE2B4601223248711C1E
:102AC000FEF736FF2B460122B11C2F48FEF730FFE0
:102AD0002B460122F11C2C48FEF72AFF6423032217
:102AE00004A92948FEF724FF1E2C10D22B460822E9
:102AF00002A92548FEF71CFF2B46012208A92248FF
:102B0000FEF716FF2B4601220DF1210120E01E3CAD
:102B10001D481E2C2B464FF0080202A90CD2FEF7CE
:102B200007FF2B4601220AA91748FEF701FF2B4693
:102B300001220DF129010BE0FEF7FAFE2B460122DE
:102B400009A91148FEF7F4FE2B4601220DF12501DB
:102B50000D48FEF7EDFE6423032204A90A48FEF7A0
:102B6000E7FE0CB070BD0000FFFFFF006A302E7062
:102B70007069633D6A302E76616C3D003131000032
:102B800031320000313300006000002000000000FE
:102B9000000000000102030406070809000000000D
:102BA00001020304C42B00080000002060000000A4
:102BB00028010008242C00086000002058070000AD
:102BC00044010008223A2E0100000000000000002D
:102BD00000000000000000000000000000000000F5
:102BE000FFFFFF00000000000000000000000000E8
:102BF000FFFFFFFFFFFF00000000000000000000DB
:102C000000000000000000000000000000000000C4
:102C100000000000010000001000000000000000A3
:042C20000024F40098
:04000005080000ED02
:00000001FF
